{
  "contractName": "RivendellNetworkBridgeContract",
  "abi": [
    {
      "inputs": [],
      "stateMutability": "nonpayable",
      "type": "constructor"
    },
    {
      "anonymous": false,
      "inputs": [
        {
          "indexed": true,
          "internalType": "address",
          "name": "recipient",
          "type": "address"
        },
        {
          "indexed": false,
          "internalType": "uint256",
          "name": "amount",
          "type": "uint256"
        }
      ],
      "name": "ERC677Allocated",
      "type": "event"
    },
    {
      "anonymous": false,
      "inputs": [
        {
          "indexed": true,
          "internalType": "address",
          "name": "returner",
          "type": "address"
        },
        {
          "indexed": false,
          "internalType": "uint256",
          "name": "amount",
          "type": "uint256"
        }
      ],
      "name": "ERC677Received",
      "type": "event"
    },
    {
      "anonymous": false,
      "inputs": [
        {
          "indexed": true,
          "internalType": "address",
          "name": "previousOwner",
          "type": "address"
        },
        {
          "indexed": true,
          "internalType": "address",
          "name": "newOwner",
          "type": "address"
        }
      ],
      "name": "OwnershipTransferred",
      "type": "event"
    },
    {
      "inputs": [],
      "name": "owner",
      "outputs": [
        {
          "internalType": "address",
          "name": "",
          "type": "address"
        }
      ],
      "stateMutability": "view",
      "type": "function"
    },
    {
      "inputs": [],
      "name": "renounceOwnership",
      "outputs": [],
      "stateMutability": "nonpayable",
      "type": "function"
    },
    {
      "inputs": [
        {
          "internalType": "address",
          "name": "newOwner",
          "type": "address"
        }
      ],
      "name": "transferOwnership",
      "outputs": [],
      "stateMutability": "nonpayable",
      "type": "function"
    },
    {
      "inputs": [
        {
          "internalType": "uint256",
          "name": "amount",
          "type": "uint256"
        }
      ],
      "name": "retrieveFunds",
      "outputs": [],
      "stateMutability": "nonpayable",
      "type": "function"
    },
    {
      "inputs": [],
      "name": "findBalance",
      "outputs": [
        {
          "internalType": "uint256",
          "name": "",
          "type": "uint256"
        }
      ],
      "stateMutability": "view",
      "type": "function"
    },
    {
      "inputs": [
        {
          "internalType": "address",
          "name": "recipient",
          "type": "address"
        },
        {
          "internalType": "uint256",
          "name": "amount",
          "type": "uint256"
        },
        {
          "internalType": "string",
          "name": "transactionHash",
          "type": "string"
        }
      ],
      "name": "allocateTokens",
      "outputs": [
        {
          "internalType": "bool",
          "name": "",
          "type": "bool"
        }
      ],
      "stateMutability": "nonpayable",
      "type": "function"
    },
    {
      "inputs": [
        {
          "internalType": "address",
          "name": "sender",
          "type": "address"
        },
        {
          "internalType": "uint256",
          "name": "amount",
          "type": "uint256"
        }
      ],
      "name": "onTokenTransfer",
      "outputs": [
        {
          "internalType": "bool",
          "name": "",
          "type": "bool"
        }
      ],
      "stateMutability": "nonpayable",
      "type": "function"
    },
    {
      "inputs": [],
      "name": "getCurrentNonce",
      "outputs": [
        {
          "internalType": "uint256",
          "name": "",
          "type": "uint256"
        }
      ],
      "stateMutability": "view",
      "type": "function"
    },
    {
      "inputs": [
        {
          "internalType": "uint256",
          "name": "index",
          "type": "uint256"
        }
      ],
      "name": "getTransactions",
      "outputs": [
        {
          "internalType": "address",
          "name": "",
          "type": "address"
        },
        {
          "internalType": "uint256",
          "name": "",
          "type": "uint256"
        }
      ],
      "stateMutability": "view",
      "type": "function"
    }
  ],
  "bytecode": "0x608060405234801561001057600080fd5b5060006100216100c460201b60201c565b9050806000806101000a81548173ffffffffffffffffffffffffffffffffffffffff021916908373ffffffffffffffffffffffffffffffffffffffff1602179055508073ffffffffffffffffffffffffffffffffffffffff16600073ffffffffffffffffffffffffffffffffffffffff167f8be0079c531659141344cd1fd0a4f28419497f9722a3daafe3b4186f6b6457e060405160405180910390a3506100cc565b600033905090565b611092806100db6000396000f3fe608060405234801561001057600080fd5b50600436106100935760003560e01c80638da5cb5b116100665780638da5cb5b14610153578063c734f9171461019d578063f2fde38b14610203578063f583f91014610247578063fc41491e1461030257610093565b80633a60c386146100985780635742177c146100b65780636b98c98b1461012b578063715018a614610149575b600080fd5b6100a0610330565b6040518082815260200191505060405180910390f35b6100e2600480360360208110156100cc57600080fd5b810190808035906020019092919050505061033d565b604051808373ffffffffffffffffffffffffffffffffffffffff1673ffffffffffffffffffffffffffffffffffffffff1681526020018281526020019250505060405180910390f35b6101336103c0565b6040518082815260200191505060405180910390f35b610151610493565b005b61015b61061b565b604051808273ffffffffffffffffffffffffffffffffffffffff1673ffffffffffffffffffffffffffffffffffffffff16815260200191505060405180910390f35b6101e9600480360360408110156101b357600080fd5b81019080803573ffffffffffffffffffffffffffffffffffffffff16906020019092919080359060200190929190505050610644565b604051808215151515815260200191505060405180910390f35b6102456004803603602081101561021957600080fd5b81019080803573ffffffffffffffffffffffffffffffffffffffff1690602001909291905050506107f1565b005b6102e86004803603606081101561025d57600080fd5b81019080803573ffffffffffffffffffffffffffffffffffffffff16906020019092919080359060200190929190803590602001906401000000008111156102a457600080fd5b8201836020820111156102b657600080fd5b803590602001918460018302840111640100000000831117156102d857600080fd5b90919293919293905050506109fe565b604051808215151515815260200191505060405180910390f35b61032e6004803603602081101561031857600080fd5b8101908080359060200190929190505050610d14565b005b6000600160035403905090565b600080600354831061035857600080819150915091506103bb565b6002838154811061036557fe5b906000526020600020906002020160000160009054906101000a900473ffffffffffffffffffffffffffffffffffffffff16600284815481106103a457fe5b906000526020600020906002020160010154915091505b915091565b60007320cde6cf3e99848c0d828877b4190fcd1357727c73ffffffffffffffffffffffffffffffffffffffff166370a08231306040518263ffffffff1660e01b8152600401808273ffffffffffffffffffffffffffffffffffffffff1673ffffffffffffffffffffffffffffffffffffffff16815260200191505060206040518083038186803b15801561045357600080fd5b505afa158015610467573d6000803e3d6000fd5b505050506040513d602081101561047d57600080fd5b8101908080519060200190929190505050905090565b61049b610f3f565b73ffffffffffffffffffffffffffffffffffffffff166000809054906101000a900473ffffffffffffffffffffffffffffffffffffffff1673ffffffffffffffffffffffffffffffffffffffff161461055c576040517f08c379a00000000000000000000000000000000000000000000000000000000081526004018080602001828103825260208152602001807f4f776e61626c653a2063616c6c6572206973206e6f7420746865206f776e657281525060200191505060405180910390fd5b600073ffffffffffffffffffffffffffffffffffffffff166000809054906101000a900473ffffffffffffffffffffffffffffffffffffffff1673ffffffffffffffffffffffffffffffffffffffff167f8be0079c531659141344cd1fd0a4f28419497f9722a3daafe3b4186f6b6457e060405160405180910390a360008060006101000a81548173ffffffffffffffffffffffffffffffffffffffff021916908373ffffffffffffffffffffffffffffffffffffffff160217905550565b60008060009054906101000a900473ffffffffffffffffffffffffffffffffffffffff16905090565b60007320cde6cf3e99848c0d828877b4190fcd1357727c73ffffffffffffffffffffffffffffffffffffffff163373ffffffffffffffffffffffffffffffffffffffff16146106de576040517f08c379a000000000000000000000000000000000000000000000000000000000815260040180806020018281038252603f815260200180610fe5603f913960400191505060405180910390fd5b600260405180604001604052808573ffffffffffffffffffffffffffffffffffffffff16815260200184815250908060018154018082558091505060019003906000526020600020906002020160009091909190915060008201518160000160006101000a81548173ffffffffffffffffffffffffffffffffffffffff021916908373ffffffffffffffffffffffffffffffffffffffff1602179055506020820151816001015550508273ffffffffffffffffffffffffffffffffffffffff167ffa197009831ad26309bc515084a4d3966c687a46ee4db399405c4f274a835433836040518082815260200191505060405180910390a26003600081548092919060010191905055506001905092915050565b6107f9610f3f565b73ffffffffffffffffffffffffffffffffffffffff166000809054906101000a900473ffffffffffffffffffffffffffffffffffffffff1673ffffffffffffffffffffffffffffffffffffffff16146108ba576040517f08c379a00000000000000000000000000000000000000000000000000000000081526004018080602001828103825260208152602001807f4f776e61626c653a2063616c6c6572206973206e6f7420746865206f776e657281525060200191505060405180910390fd5b600073ffffffffffffffffffffffffffffffffffffffff168173ffffffffffffffffffffffffffffffffffffffff161415610940576040517f08c379a0000000000000000000000000000000000000000000000000000000008152600401808060200182810382526026815260200180610f486026913960400191505060405180910390fd5b8073ffffffffffffffffffffffffffffffffffffffff166000809054906101000a900473ffffffffffffffffffffffffffffffffffffffff1673ffffffffffffffffffffffffffffffffffffffff167f8be0079c531659141344cd1fd0a4f28419497f9722a3daafe3b4186f6b6457e060405160405180910390a3806000806101000a81548173ffffffffffffffffffffffffffffffffffffffff021916908373ffffffffffffffffffffffffffffffffffffffff16021790555050565b6000610a08610f3f565b73ffffffffffffffffffffffffffffffffffffffff166000809054906101000a900473ffffffffffffffffffffffffffffffffffffffff1673ffffffffffffffffffffffffffffffffffffffff1614610ac9576040517f08c379a00000000000000000000000000000000000000000000000000000000081526004018080602001828103825260208152602001807f4f776e61626c653a2063616c6c6572206973206e6f7420746865206f776e657281525060200191505060405180910390fd5b60018383604051808383808284378083019250505092505050908152602001604051809103902060009054906101000a900460ff1615610b54576040517f08c379a0000000000000000000000000000000000000000000000000000000008152600401808060200182810382526045815260200180610fa06045913960600191505060405180910390fd5b6001808484604051808383808284378083019250505092505050908152602001604051809103902060006101000a81548160ff0219169083151502179055507320cde6cf3e99848c0d828877b4190fcd1357727c73ffffffffffffffffffffffffffffffffffffffff1663a9059cbb86866040518363ffffffff1660e01b8152600401808373ffffffffffffffffffffffffffffffffffffffff1673ffffffffffffffffffffffffffffffffffffffff16815260200182815260200192505050602060405180830381600087803b158015610c2e57600080fd5b505af1158015610c42573d6000803e3d6000fd5b505050506040513d6020811015610c5857600080fd5b8101908080519060200190929190505050610cbe576040517f08c379a00000000000000000000000000000000000000000000000000000000081526004018080602001828103825260398152602001806110246039913960400191505060405180910390fd5b8473ffffffffffffffffffffffffffffffffffffffff167fbffdb237aacf306eff72dbdf037fb5335add049c616f8c967076087ad6b71f06856040518082815260200191505060405180910390a2949350505050565b610d1c610f3f565b73ffffffffffffffffffffffffffffffffffffffff166000809054906101000a900473ffffffffffffffffffffffffffffffffffffffff1673ffffffffffffffffffffffffffffffffffffffff1614610ddd576040517f08c379a00000000000000000000000000000000000000000000000000000000081526004018080602001828103825260208152602001807f4f776e61626c653a2063616c6c6572206973206e6f7420746865206f776e657281525060200191505060405180910390fd5b7320cde6cf3e99848c0d828877b4190fcd1357727c73ffffffffffffffffffffffffffffffffffffffff166323b872dd3330846040518463ffffffff1660e01b8152600401808473ffffffffffffffffffffffffffffffffffffffff1673ffffffffffffffffffffffffffffffffffffffff1681526020018373ffffffffffffffffffffffffffffffffffffffff1673ffffffffffffffffffffffffffffffffffffffff1681526020018281526020019350505050602060405180830381600087803b158015610eac57600080fd5b505af1158015610ec0573d6000803e3d6000fd5b505050506040513d6020811015610ed657600080fd5b8101908080519060200190929190505050610f3c576040517f08c379a0000000000000000000000000000000000000000000000000000000008152600401808060200182810382526032815260200180610f6e6032913960400191505060405180910390fd5b50565b60003390509056fe4f776e61626c653a206e6577206f776e657220697320746865207a65726f2061646472657373526976656e64656c6c4e6574776f726b427269646765436f6e74726163743a2046756e6473206e6f74207265747269657665526976656e64656c6c4e6574776f726b427269646765436f6e74726163743a207472616e73616374696f6e2068617320616c7265616479206265656e207265636f72646564526976656e64656c6c4e6574776f726b427269646765436f6e74726163743a2073656e646572206e6565647320746f2062652045524336373720746f6b656e526976656e64656c6c4e6574776f726b427269646765436f6e74726163743a207472616e7366657220776173206e6f74206578656375746564a2646970667358221220dc80afaa10e768958a7cd5ffaff642a34060a6745690bfa4d358fea441ac24ac64736f6c63430006020033",
  "source": "pragma solidity ^0.6.0;\n\nimport \"@openzeppelin/contracts/access/Ownable.sol\";\nimport \"./ERC677.sol\";\n\ncontract RivendellNetworkBridgeContract is Ownable {\n  event ERC677Allocated(address indexed recipient, uint256 amount);\n  event ERC677Received(address indexed returner, uint256 amount);\n\n  struct transaction {\n    address sender;\n    uint256 amount;\n  }\n\n  mapping(string => bool) internal previousTransactions;\n  transaction[] internal queuedTransactions;\n  uint256 internal nonce;\n  ERC677 constant internal token = ERC677(0x20cdE6cF3E99848C0d828877B4190fcd1357727c);\n\n  constructor() public Ownable() {}\n\n  function retrieveFunds(uint256 amount) public onlyOwner {\n    require(token.transferFrom(msg.sender, address(this), amount), \"RivendellNetworkBridgeContract: Funds not retrieve\");\n  }\n\n  function findBalance() public view returns (uint256) {\n    return token.balanceOf(address(this));\n  }\n\n  function allocateTokens(address recipient, uint256 amount, string calldata transactionHash) external onlyOwner returns (bool) {\n    require(!previousTransactions[transactionHash], \"RivendellNetworkBridgeContract: transaction has already been recorded\");\n    previousTransactions[transactionHash] = true;\n    require(token.transfer(recipient, amount), \"RivendellNetworkBridgeContract: transfer was not executed\");\n    emit ERC677Allocated(recipient, amount);\n  }\n\n  function onTokenTransfer(address sender, uint256 amount) external returns (bool) {\n    require(msg.sender == address(token), \"RivendellNetworkBridgeContract: sender needs to be ERC677 token\");\n    queuedTransactions.push(transaction(sender, amount));\n    emit ERC677Received(sender, amount);\n    nonce++;\n    return true;\n  }\n\n  function getCurrentNonce() external view returns (uint256) {\n    return nonce - 1;\n  }\n\n  function getTransactions(uint256 index) external view returns (address, uint256) {\n    if (index >= nonce) return (address(0), uint256(0));\n    return (queuedTransactions[index].sender, queuedTransactions[index].amount);\n  }\n}\n",
  "sourcePath": "/Users/amirshirif/Documents/Solidity/TrulyWorthless/contracts/RivendellNetworkBridgeContract.sol",
  "compiler": {
    "name": "solc",
    "version": "0.6.2+commit.bacdbe57.Emscripten.clang"
  },
  "schemaVersion": "3.2.5",
  "updatedAt": "2020-11-23T23:28:30.390Z",
  "devdoc": {
    "methods": {
      "owner()": {
        "details": "Returns the address of the current owner."
      },
      "renounceOwnership()": {
        "details": "Leaves the contract without owner. It will not be possible to call `onlyOwner` functions anymore. Can only be called by the current owner.     * NOTE: Renouncing ownership will leave the contract without an owner, thereby removing any functionality that is only available to the owner."
      },
      "transferOwnership(address)": {
        "details": "Transfers ownership of the contract to a new account (`newOwner`). Can only be called by the current owner."
      }
    }
  },
  "userdoc": {
    "methods": {}
  }
}