{
  "contractName": "WorthlessWrapper",
  "abi": [
    {
      "inputs": [],
      "stateMutability": "nonpayable",
      "type": "constructor"
    },
    {
      "anonymous": false,
      "inputs": [
        {
          "indexed": false,
          "internalType": "address",
          "name": "sender",
          "type": "address"
        },
        {
          "indexed": false,
          "internalType": "address",
          "name": "receiver",
          "type": "address"
        },
        {
          "indexed": false,
          "internalType": "uint256",
          "name": "amount",
          "type": "uint256"
        }
      ],
      "name": "ERC677Transfer",
      "type": "event"
    },
    {
      "inputs": [
        {
          "internalType": "contract BridgeContract",
          "name": "receiver",
          "type": "address"
        },
        {
          "internalType": "uint256",
          "name": "amount",
          "type": "uint256"
        },
        {
          "internalType": "bytes",
          "name": "data",
          "type": "bytes"
        }
      ],
      "name": "transferAndCall",
      "outputs": [
        {
          "internalType": "bool",
          "name": "",
          "type": "bool"
        }
      ],
      "stateMutability": "nonpayable",
      "type": "function"
    }
  ],
  "bytecode": "0x608060405234801561001057600080fd5b5073aee8cfd6c351ef2f0c53fe963f4112043d371e6a806000806101000a81548173ffffffffffffffffffffffffffffffffffffffff021916908373ffffffffffffffffffffffffffffffffffffffff160217905550506103c2806100766000396000f3fe608060405234801561001057600080fd5b506004361061002b5760003560e01c80634000aea014610030575b600080fd5b6101136004803603606081101561004657600080fd5b81019080803573ffffffffffffffffffffffffffffffffffffffff169060200190929190803590602001909291908035906020019064010000000081111561008d57600080fd5b82018360208201111561009f57600080fd5b803590602001918460018302840111640100000000831117156100c157600080fd5b91908080601f016020809104026020016040519081016040528093929190818152602001838380828437600081840152601f19601f82011690508083019250505050505050919291929050505061012d565b604051808215151515815260200191505060405180910390f35b60008060009054906101000a900473ffffffffffffffffffffffffffffffffffffffff1673ffffffffffffffffffffffffffffffffffffffff1663a9059cbb85856040518363ffffffff1660e01b8152600401808373ffffffffffffffffffffffffffffffffffffffff1673ffffffffffffffffffffffffffffffffffffffff16815260200182815260200192505050602060405180830381600087803b1580156101d757600080fd5b505af11580156101eb573d6000803e3d6000fd5b505050506040513d602081101561020157600080fd5b810190808051906020019092919050505061021b57600080fd5b7fbc521e5266a571b70200b2cb4d466f8eb4b89f33910575e8b46272b67e8fbc90338585604051808473ffffffffffffffffffffffffffffffffffffffff1673ffffffffffffffffffffffffffffffffffffffff1681526020018373ffffffffffffffffffffffffffffffffffffffff1673ffffffffffffffffffffffffffffffffffffffff168152602001828152602001935050505060405180910390a18373ffffffffffffffffffffffffffffffffffffffff1663c734f91733856040518363ffffffff1660e01b8152600401808373ffffffffffffffffffffffffffffffffffffffff1673ffffffffffffffffffffffffffffffffffffffff16815260200182815260200192505050602060405180830381600087803b15801561034157600080fd5b505af1158015610355573d6000803e3d6000fd5b505050506040513d602081101561036b57600080fd5b810190808051906020019092919050505061038557600080fd5b939250505056fea2646970667358221220ecca86d1d01c732b71c2b92081eba27eb37ccc0fcbb4a9425479486c8213343464736f6c63430006020033",
  "source": "pragma solidity ^0.6.0;\n\nimport \"./TrulyWorthless.sol\";\nimport \"./ERC677.sol\";\n\ncontract WorthlessWrapper is ERC677 {\n  constructor () public ERC677(ERC20(0xaEe8Cfd6C351EF2F0c53fE963F4112043d371E6a)) {\n    /* _mint(msg.sender, 1000 * (10 ** uint256(decimals()))); */\n  }\n}\n",
  "sourcePath": "/Users/amirshirif/Documents/Solidity/TrulyWorthless/contracts/WorthlessWrapper.sol",
  "compiler": {
    "name": "solc",
    "version": "0.6.2+commit.bacdbe57.Emscripten.clang"
  },
  "schemaVersion": "3.2.5",
  "updatedAt": "2020-10-27T16:41:24.330Z",
  "devdoc": {
    "methods": {}
  },
  "userdoc": {
    "methods": {}
  }
}